{
  "contractName": "SimpleStorage",
  "abi": [
    {
      "inputs": [],
      "name": "iden",
      "outputs": [
        {
          "internalType": "string",
          "name": "",
          "type": "string"
        }
      ],
      "stateMutability": "view",
      "type": "function",
      "constant": true
    },
    {
      "inputs": [],
      "name": "sendether",
      "outputs": [],
      "stateMutability": "payable",
      "type": "function",
      "payable": true
    },
    {
      "inputs": [],
      "name": "recieveether",
      "outputs": [],
      "stateMutability": "payable",
      "type": "function",
      "payable": true
    },
    {
      "inputs": [],
      "name": "withdraw",
      "outputs": [],
      "stateMutability": "nonpayable",
      "type": "function"
    }
  ],
  "bytecode": "0x608060405234801561001057600080fd5b50610380806100206000396000f3fe60806040526004361061003f5760003560e01c80633ccfd60b1461004457806353d4a1bb1461005b5780639e791d8b146100eb578063ca0c4649146100f5575b600080fd5b34801561005057600080fd5b506100596100ff565b005b34801561006757600080fd5b5061007061016b565b6040518080602001828103825283818151815260200191508051906020019080838360005b838110156100b0578082015181840152602081019050610095565b50505050905090810190601f1680156100dd5780820380516001836020036101000a031916815260200191505b509250505060405180910390f35b6100f3610209565b005b6100fd610257565b005b600030905060008173ffffffffffffffffffffffffffffffffffffffff163190503373ffffffffffffffffffffffffffffffffffffffff166108fc829081150290604051600060405180830381858888f19350505050158015610166573d6000803e3d6000fd5b505050565b60008054600181600116156101000203166002900480601f0160208091040260200160405190810160405280929190818152602001828054600181600116156101000203166002900480156102015780601f106101d657610100808354040283529160200191610201565b820191906000526020600020905b8154815290600101906020018083116101e457829003601f168201915b505050505081565b6040518060400160405280601181526020017f73656e642065746865722063616c6c6564000000000000000000000000000000815250600090805190602001906102549291906102a5565b50565b6040518060400160405280601381526020017f66616c6c62616b2020676f742063616c6c656400000000000000000000000000815250600090805190602001906102a29291906102a5565b50565b828054600181600116156101000203166002900490600052602060002090601f016020900481019282601f106102e657805160ff1916838001178555610314565b82800160010185558215610314579182015b828111156103135782518255916020019190600101906102f8565b5b5090506103219190610325565b5090565b61034791905b8082111561034357600081600090555060010161032b565b5090565b9056fea2646970667358221220d6bec96eae01be05e7c19eb0416924414095bc402cdb8fad41469207dd260e3364736f6c63430006000033",
  "source": "// SPDX-License-Identifier: MIT\npragma solidity ^0.6.0;\n\ncontract SimpleStorage {\n  string public iden;\n\n  function sendether () public payable {\n    iden = \"send ether called\";\n  }\n\n  function recieveether() external payable {\n    iden = \"fallbak  got called\";\n  }\n\n  function withdraw() public {\n    address my = address(this);\n    uint256 balance = my.balance;\n    (msg.sender).transfer(balance);\n  }\n}\n",
  "sourcePath": "C:/Users/clipp/OneDrive/Documents/Code/practice/simple_wallet_eth_smart_contract/contracts/SimpleStorage.sol",
  "compiler": {
    "name": "solc",
    "version": "0.6.0+commit.26b70077.Emscripten.clang"
  },
  "schemaVersion": "3.3.4",
  "updatedAt": "2021-03-21T23:12:51.939Z",
  "networkType": "ethereum",
  "devdoc": {
    "methods": {}
  },
  "userdoc": {
    "methods": {}
  }
}