{
  "contractName": "wallet",
  "abi": [
    {
      "inputs": [],
      "stateMutability": "nonpayable",
      "type": "constructor"
    },
    {
      "anonymous": false,
      "inputs": [
        {
          "indexed": true,
          "internalType": "address",
          "name": "address1",
          "type": "address"
        },
        {
          "indexed": false,
          "internalType": "uint256",
          "name": "amount1",
          "type": "uint256"
        }
      ],
      "name": "recieveMoney",
      "type": "event"
    },
    {
      "anonymous": false,
      "inputs": [
        {
          "indexed": true,
          "internalType": "address",
          "name": "address1",
          "type": "address"
        },
        {
          "indexed": false,
          "internalType": "uint256",
          "name": "amount1",
          "type": "uint256"
        }
      ],
      "name": "sentMoney",
      "type": "event"
    },
    {
      "inputs": [
        {
          "internalType": "address",
          "name": "",
          "type": "address"
        }
      ],
      "name": "balanceRecord",
      "outputs": [
        {
          "internalType": "uint256",
          "name": "totalBalance",
          "type": "uint256"
        },
        {
          "internalType": "uint256",
          "name": "numpay",
          "type": "uint256"
        }
      ],
      "stateMutability": "view",
      "type": "function"
    },
    {
      "inputs": [],
      "name": "owner",
      "outputs": [
        {
          "internalType": "address",
          "name": "",
          "type": "address"
        }
      ],
      "stateMutability": "view",
      "type": "function"
    },
    {
      "inputs": [],
      "name": "pause",
      "outputs": [
        {
          "internalType": "bool",
          "name": "",
          "type": "bool"
        }
      ],
      "stateMutability": "view",
      "type": "function"
    },
    {
      "inputs": [
        {
          "internalType": "bool",
          "name": "_pause",
          "type": "bool"
        }
      ],
      "name": "changePause",
      "outputs": [],
      "stateMutability": "nonpayable",
      "type": "function"
    },
    {
      "inputs": [],
      "name": "sendMoney",
      "outputs": [],
      "stateMutability": "payable",
      "type": "function"
    },
    {
      "inputs": [],
      "name": "getBalance",
      "outputs": [
        {
          "internalType": "uint256",
          "name": "",
          "type": "uint256"
        }
      ],
      "stateMutability": "view",
      "type": "function"
    },
    {
      "inputs": [
        {
          "internalType": "uint256",
          "name": "_amountInWei",
          "type": "uint256"
        }
      ],
      "name": "convertToEth",
      "outputs": [
        {
          "internalType": "uint256",
          "name": "",
          "type": "uint256"
        }
      ],
      "stateMutability": "pure",
      "type": "function"
    },
    {
      "inputs": [
        {
          "internalType": "uint256",
          "name": "_amount",
          "type": "uint256"
        }
      ],
      "name": "withdraw",
      "outputs": [],
      "stateMutability": "nonpayable",
      "type": "function"
    },
    {
      "inputs": [
        {
          "internalType": "address payable",
          "name": "ender",
          "type": "address"
        }
      ],
      "name": "destroy",
      "outputs": [],
      "stateMutability": "nonpayable",
      "type": "function"
    }
  ],
  "bytecode": "0x608060405234801561001057600080fd5b50336000806101000a81548173ffffffffffffffffffffffffffffffffffffffff021916908373ffffffffffffffffffffffffffffffffffffffff1602179055506109b9806100606000396000f3fe6080604052600436106100855760003560e01c80635d4fead3116100595780635d4fead3146101ad5780638456cb59146101ea5780638da5cb5b14610219578063cbedbf5a14610270578063fe18d6e61461027a57610085565b8062f55d9d1461008a57806312065fe0146100db5780632d3dc802146101065780632e1a7d4d14610172575b600080fd5b34801561009657600080fd5b506100d9600480360360208110156100ad57600080fd5b81019080803573ffffffffffffffffffffffffffffffffffffffff1690602001909291905050506102c9565b005b3480156100e757600080fd5b506100f061033b565b6040518082815260200191505060405180910390f35b34801561011257600080fd5b506101556004803603602081101561012957600080fd5b81019080803573ffffffffffffffffffffffffffffffffffffffff16906020019092919050505061040d565b604051808381526020018281526020019250505060405180910390f35b34801561017e57600080fd5b506101ab6004803603602081101561019557600080fd5b8101908080359060200190929190505050610431565b005b3480156101b957600080fd5b506101e8600480360360208110156101d057600080fd5b8101908080351515906020019092919050505061065a565b005b3480156101f657600080fd5b506101ff6106d0565b604051808215151515815260200191505060405180910390f35b34801561022557600080fd5b5061022e6106e3565b604051808273ffffffffffffffffffffffffffffffffffffffff1673ffffffffffffffffffffffffffffffffffffffff16815260200191505060405180910390f35b610278610708565b005b34801561028657600080fd5b506102b36004803603602081101561029d57600080fd5b810190808035906020019092919050505061094e565b6040518082815260200191505060405180910390f35b6000809054906101000a900473ffffffffffffffffffffffffffffffffffffffff1673ffffffffffffffffffffffffffffffffffffffff163373ffffffffffffffffffffffffffffffffffffffff161461032257600080fd5b8073ffffffffffffffffffffffffffffffffffffffff16ff5b6000801515600060149054906101000a900460ff161515146103c5576040517f08c379a00000000000000000000000000000000000000000000000000000000081526004018080602001828103825260128152602001807f436f6e747261637420697320506175736564000000000000000000000000000081525060200191505060405180910390fd5b600160003373ffffffffffffffffffffffffffffffffffffffff1673ffffffffffffffffffffffffffffffffffffffff16815260200190815260200160002060000154905090565b60016020528060005260406000206000915090508060000154908060010154905082565b60001515600060149054906101000a900460ff161515146104ba576040517f08c379a00000000000000000000000000000000000000000000000000000000081526004018080602001828103825260128152602001807f436f6e747261637420697320506175736564000000000000000000000000000081525060200191505060405180910390fd5b80600160003373ffffffffffffffffffffffffffffffffffffffff1673ffffffffffffffffffffffffffffffffffffffff168152602001908152602001600020600001541015610572576040517f08c379a00000000000000000000000000000000000000000000000000000000081526004018080602001828103825260108152602001807f4e6f7420456e6f7567682046756e64730000000000000000000000000000000081525060200191505060405180910390fd5b80600160003373ffffffffffffffffffffffffffffffffffffffff1673ffffffffffffffffffffffffffffffffffffffff168152602001908152602001600020600001600082825403925050819055503373ffffffffffffffffffffffffffffffffffffffff166108fc829081150290604051600060405180830381858888f19350505050158015610608573d6000803e3d6000fd5b503373ffffffffffffffffffffffffffffffffffffffff167fd49691c93629cc82dda9b0e116396be8b63e8edcde7d8b2d894714ecdc74221d826040518082815260200191505060405180910390a250565b6000809054906101000a900473ffffffffffffffffffffffffffffffffffffffff1673ffffffffffffffffffffffffffffffffffffffff163373ffffffffffffffffffffffffffffffffffffffff16146106b357600080fd5b80600060146101000a81548160ff02191690831515021790555050565b600060149054906101000a900460ff1681565b6000809054906101000a900473ffffffffffffffffffffffffffffffffffffffff1681565b60001515600060149054906101000a900460ff16151514610791576040517f08c379a00000000000000000000000000000000000000000000000000000000081526004018080602001828103825260128152602001807f436f6e747261637420697320506175736564000000000000000000000000000081525060200191505060405180910390fd5b34600160003373ffffffffffffffffffffffffffffffffffffffff1673ffffffffffffffffffffffffffffffffffffffff1681526020019081526020016000206000016000828254019250508190555060018060003373ffffffffffffffffffffffffffffffffffffffff1673ffffffffffffffffffffffffffffffffffffffff16815260200190815260200160002060010160008282540192505081905550610839610969565b604051806040016040528034815260200142815250905080600160003373ffffffffffffffffffffffffffffffffffffffff1673ffffffffffffffffffffffffffffffffffffffff1681526020019081526020016000206002016000600160003373ffffffffffffffffffffffffffffffffffffffff1673ffffffffffffffffffffffffffffffffffffffff16815260200190815260200160002060010154815260200190815260200160002060008201518160000155602082015181600101559050503373ffffffffffffffffffffffffffffffffffffffff167f13e45cbae7eac4fcf31592f80130a001a73cde8b2257c240bc7783927344e837346040518082815260200191505060405180910390a250565b6000670de0b6b3a7640000828161096157fe5b049050919050565b60405180604001604052806000815260200160008152509056fea26469706673582212208af06b9f88871dd96d808f01b8a3e48ccc29410705a78d3539e3923da95a9fc564736f6c63430006000033",
  "source": "pragma solidity ^0.6.0;\r\n\r\ncontract wallet {\r\n    address public owner;\r\n    bool public pause;\r\n    constructor() public {\r\n        owner = msg.sender;\r\n    }\r\n    \r\n    struct Payment {\r\n        uint amount;\r\n        uint timestamp;\r\n    }\r\n    \r\n    struct Balance {\r\n        uint totalBalance;\r\n        uint numpay;\r\n        mapping(uint => Payment) payments;\r\n    }\r\n    \r\n    mapping(address => Balance) public balanceRecord;\r\n    \r\n    event sentMoney(address indexed address1, uint amount1);\r\n    event recieveMoney(address indexed address1, uint amount1);\r\n\r\n    modifier onlyOwner() {\r\n        require(msg.sender == owner);\r\n        _;\r\n    }\r\n\r\n    modifier notPause() {\r\n        require(pause == false, \"Contract is Paused\");\r\n        _;\r\n    }\r\n    \r\n    function changePause(bool _pause) public onlyOwner {\r\n        pause = _pause;\r\n    }\r\n\r\n    function sendMoney() public payable notPause {\r\n        balanceRecord[msg.sender].totalBalance += msg.value;\r\n        balanceRecord[msg.sender].numpay += 1;\r\n        Payment memory pay = Payment(msg.value, now);\r\n        balanceRecord[msg.sender].payments[balanceRecord[msg.sender].numpay] = pay;\r\n        emit sentMoney(msg.sender, msg.value);\r\n    }\r\n    \r\n    function getBalance() public view notPause returns (uint) {\r\n        return balanceRecord[msg.sender].totalBalance;\r\n    }\r\n    \r\n    function convertToEth(uint _amountInWei) public pure  returns (uint) {\r\n        return _amountInWei/1 ether;\r\n    }\r\n    \r\n    function withdraw(uint _amount) public notPause {\r\n        require(balanceRecord[msg.sender].totalBalance >= _amount, \"Not Enough Funds\");\r\n        balanceRecord[msg.sender].totalBalance -= _amount;\r\n        msg.sender.transfer(_amount);\r\n        emit recieveMoney(msg.sender, _amount);\r\n    }\r\n    \r\n    function destroy(address payable ender) public onlyOwner {\r\n        selfdestruct(ender);\r\n    }\r\n}",
  "sourcePath": "C:/Users/clipp/OneDrive/Documents/Code/practice/simple_wallet_eth_smart_contract/contracts/Wallet.sol",
  "compiler": {
    "name": "solc",
    "version": "0.6.0+commit.26b70077.Emscripten.clang"
  },
  "schemaVersion": "3.3.4",
  "updatedAt": "2021-03-21T21:05:50.617Z",
  "devdoc": {
    "methods": {}
  },
  "userdoc": {
    "methods": {}
  }
}